{
  "contractName": "Marketplace",
  "abi": [
    {
      "inputs": [],
      "payable": false,
      "stateMutability": "nonpayable",
      "type": "constructor"
    },
    {
      "anonymous": false,
      "inputs": [
        {
          "indexed": false,
          "internalType": "uint256",
          "name": "id",
          "type": "uint256"
        },
        {
          "indexed": false,
          "internalType": "string",
          "name": "name",
          "type": "string"
        },
        {
          "indexed": false,
          "internalType": "uint256",
          "name": "price",
          "type": "uint256"
        },
        {
          "indexed": false,
          "internalType": "string",
          "name": "artist",
          "type": "string"
        },
        {
          "indexed": false,
          "internalType": "string",
          "name": "musicUrl_musicPhoto_artistPhoto",
          "type": "string"
        },
        {
          "indexed": false,
          "internalType": "string",
          "name": "description",
          "type": "string"
        },
        {
          "indexed": false,
          "internalType": "string",
          "name": "date",
          "type": "string"
        },
        {
          "indexed": false,
          "internalType": "address payable",
          "name": "owner",
          "type": "address"
        },
        {
          "indexed": false,
          "internalType": "bool",
          "name": "purchased",
          "type": "bool"
        }
      ],
      "name": "ProductCreated",
      "type": "event"
    },
    {
      "anonymous": false,
      "inputs": [
        {
          "indexed": false,
          "internalType": "uint256",
          "name": "id",
          "type": "uint256"
        },
        {
          "indexed": false,
          "internalType": "string",
          "name": "name",
          "type": "string"
        },
        {
          "indexed": false,
          "internalType": "uint256",
          "name": "price",
          "type": "uint256"
        },
        {
          "indexed": false,
          "internalType": "string",
          "name": "artist",
          "type": "string"
        },
        {
          "indexed": false,
          "internalType": "string",
          "name": "musicUrl_musicPhoto_artistPhoto",
          "type": "string"
        },
        {
          "indexed": false,
          "internalType": "string",
          "name": "description",
          "type": "string"
        },
        {
          "indexed": false,
          "internalType": "string",
          "name": "date",
          "type": "string"
        },
        {
          "indexed": false,
          "internalType": "address payable",
          "name": "owner",
          "type": "address"
        },
        {
          "indexed": false,
          "internalType": "bool",
          "name": "purchased",
          "type": "bool"
        }
      ],
      "name": "ProductPurchased",
      "type": "event"
    },
    {
      "constant": true,
      "inputs": [],
      "name": "name",
      "outputs": [
        {
          "internalType": "string",
          "name": "",
          "type": "string"
        }
      ],
      "payable": false,
      "stateMutability": "view",
      "type": "function"
    },
    {
      "constant": true,
      "inputs": [],
      "name": "productCount",
      "outputs": [
        {
          "internalType": "uint256",
          "name": "",
          "type": "uint256"
        }
      ],
      "payable": false,
      "stateMutability": "view",
      "type": "function"
    },
    {
      "constant": true,
      "inputs": [
        {
          "internalType": "uint256",
          "name": "",
          "type": "uint256"
        }
      ],
      "name": "products",
      "outputs": [
        {
          "internalType": "uint256",
          "name": "id",
          "type": "uint256"
        },
        {
          "internalType": "string",
          "name": "name",
          "type": "string"
        },
        {
          "internalType": "uint256",
          "name": "price",
          "type": "uint256"
        },
        {
          "internalType": "string",
          "name": "artist",
          "type": "string"
        },
        {
          "internalType": "string",
          "name": "musicUrl_musicPhoto_artistPhoto",
          "type": "string"
        },
        {
          "internalType": "string",
          "name": "description",
          "type": "string"
        },
        {
          "internalType": "string",
          "name": "date",
          "type": "string"
        },
        {
          "internalType": "address payable",
          "name": "owner",
          "type": "address"
        },
        {
          "internalType": "bool",
          "name": "purchased",
          "type": "bool"
        }
      ],
      "payable": false,
      "stateMutability": "view",
      "type": "function"
    },
    {
      "constant": false,
      "inputs": [
        {
          "internalType": "string",
          "name": "_name",
          "type": "string"
        },
        {
          "internalType": "uint256",
          "name": "_price",
          "type": "uint256"
        },
        {
          "internalType": "string",
          "name": "_artist",
          "type": "string"
        },
        {
          "internalType": "string",
          "name": "_musicUrl_musicPhoto_artistPhoto",
          "type": "string"
        },
        {
          "internalType": "string",
          "name": "_description",
          "type": "string"
        },
        {
          "internalType": "string",
          "name": "_date",
          "type": "string"
        }
      ],
      "name": "createProduct",
      "outputs": [],
      "payable": false,
      "stateMutability": "nonpayable",
      "type": "function"
    },
    {
      "constant": false,
      "inputs": [
        {
          "internalType": "uint256",
          "name": "_id",
          "type": "uint256"
        }
      ],
      "name": "purchaseProduct",
      "outputs": [],
      "payable": true,
      "stateMutability": "payable",
      "type": "function"
    }
  ],
  "bytecode": "0x608060405260006001553480156200001657600080fd5b506040518060400160405280601081526020017f57656233204d61726b6574506c6163650000000000000000000000000000000081525060009080519060200190620000649291906200006b565b506200011a565b828054600181600116156101000203166002900490600052602060002090601f016020900481019282601f10620000ae57805160ff1916838001178555620000df565b82800160010185558215620000df579182015b82811115620000de578251825591602001919060010190620000c1565b5b509050620000ee9190620000f2565b5090565b6200011791905b8082111562000113576000816000905550600101620000f9565b5090565b90565b6119ce806200012a6000396000f3fe60806040526004361061004a5760003560e01c806306fdde031461004f57806338e76a03146100df5780637acc0b201461010d578063e0f6ef87146103bd578063e6821f5c146103e8575b600080fd5b34801561005b57600080fd5b50610064610716565b6040518080602001828103825283818151815260200191508051906020019080838360005b838110156100a4578082015181840152602081019050610089565b50505050905090810190601f1680156100d15780820380516001836020036101000a031916815260200191505b509250505060405180910390f35b61010b600480360360208110156100f557600080fd5b81019080803590602001909291905050506107b4565b005b34801561011957600080fd5b506101466004803603602081101561013057600080fd5b8101908080359060200190929190505050611087565b604051808a815260200180602001898152602001806020018060200180602001806020018873ffffffffffffffffffffffffffffffffffffffff1673ffffffffffffffffffffffffffffffffffffffff1681526020018715151515815260200186810386528e818151815260200191508051906020019080838360005b838110156101de5780820151818401526020810190506101c3565b50505050905090810190601f16801561020b5780820380516001836020036101000a031916815260200191505b5086810385528c818151815260200191508051906020019080838360005b83811015610244578082015181840152602081019050610229565b50505050905090810190601f1680156102715780820380516001836020036101000a031916815260200191505b5086810384528b818151815260200191508051906020019080838360005b838110156102aa57808201518184015260208101905061028f565b50505050905090810190601f1680156102d75780820380516001836020036101000a031916815260200191505b5086810383528a818151815260200191508051906020019080838360005b838110156103105780820151818401526020810190506102f5565b50505050905090810190601f16801561033d5780820380516001836020036101000a031916815260200191505b50868103825289818151815260200191508051906020019080838360005b8381101561037657808201518184015260208101905061035b565b50505050905090810190601f1680156103a35780820380516001836020036101000a031916815260200191505b509e50505050505050505050505050505060405180910390f35b3480156103c957600080fd5b506103d26113fa565b6040518082815260200191505060405180910390f35b3480156103f457600080fd5b50610714600480360360c081101561040b57600080fd5b810190808035906020019064010000000081111561042857600080fd5b82018360208201111561043a57600080fd5b8035906020019184600183028401116401000000008311171561045c57600080fd5b91908080601f016020809104026020016040519081016040528093929190818152602001838380828437600081840152601f19601f82011690508083019250505050505050919291929080359060200190929190803590602001906401000000008111156104c957600080fd5b8201836020820111156104db57600080fd5b803590602001918460018302840111640100000000831117156104fd57600080fd5b91908080601f016020809104026020016040519081016040528093929190818152602001838380828437600081840152601f19601f8201169050808301925050505050505091929192908035906020019064010000000081111561056057600080fd5b82018360208201111561057257600080fd5b8035906020019184600183028401116401000000008311171561059457600080fd5b91908080601f016020809104026020016040519081016040528093929190818152602001838380828437600081840152601f19601f820116905080830192505050505050509192919290803590602001906401000000008111156105f757600080fd5b82018360208201111561060957600080fd5b8035906020019184600183028401116401000000008311171561062b57600080fd5b91908080601f016020809104026020016040519081016040528093929190818152602001838380828437600081840152601f19601f8201169050808301925050505050505091929192908035906020019064010000000081111561068e57600080fd5b8201836020820111156106a057600080fd5b803590602001918460018302840111640100000000831117156106c257600080fd5b91908080601f016020809104026020016040519081016040528093929190818152602001838380828437600081840152601f19601f820116905080830192505050505050509192919290505050611400565b005b60008054600181600116156101000203166002900480601f0160208091040260200160405190810160405280929190818152602001828054600181600116156101000203166002900480156107ac5780601f10610781576101008083540402835291602001916107ac565b820191906000526020600020905b81548152906001019060200180831161078f57829003601f168201915b505050505081565b6107bc611890565b600260008381526020019081526020016000206040518061012001604052908160008201548152602001600182018054600181600116156101000203166002900480601f01602080910402602001604051908101604052809291908181526020018280546001816001161561010002031660029004801561087e5780601f106108535761010080835404028352916020019161087e565b820191906000526020600020905b81548152906001019060200180831161086157829003601f168201915b5050505050815260200160028201548152602001600382018054600181600116156101000203166002900480601f01602080910402602001604051908101604052809291908181526020018280546001816001161561010002031660029004801561092a5780601f106108ff5761010080835404028352916020019161092a565b820191906000526020600020905b81548152906001019060200180831161090d57829003601f168201915b50505050508152602001600482018054600181600116156101000203166002900480601f0160208091040260200160405190810160405280929190818152602001828054600181600116156101000203166002900480156109cc5780601f106109a1576101008083540402835291602001916109cc565b820191906000526020600020905b8154815290600101906020018083116109af57829003601f168201915b50505050508152602001600582018054600181600116156101000203166002900480601f016020809104026020016040519081016040528092919081815260200182805460018160011615610100020316600290048015610a6e5780601f10610a4357610100808354040283529160200191610a6e565b820191906000526020600020905b815481529060010190602001808311610a5157829003601f168201915b50505050508152602001600682018054600181600116156101000203166002900480601f016020809104026020016040519081016040528092919081815260200182805460018160011615610100020316600290048015610b105780601f10610ae557610100808354040283529160200191610b10565b820191906000526020600020905b815481529060010190602001808311610af357829003601f168201915b505050505081526020016007820160009054906101000a900473ffffffffffffffffffffffffffffffffffffffff1673ffffffffffffffffffffffffffffffffffffffff1673ffffffffffffffffffffffffffffffffffffffff1681526020016007820160149054906101000a900460ff161515151581525050905060008160e00151905060008260000151118015610baf5750600154826000015111155b610bb857600080fd5b8160400151341015610bc957600080fd5b81610100015115610bd957600080fd5b3373ffffffffffffffffffffffffffffffffffffffff168173ffffffffffffffffffffffffffffffffffffffff161415610c1257600080fd5b338260e0019073ffffffffffffffffffffffffffffffffffffffff16908173ffffffffffffffffffffffffffffffffffffffff16815250506001826101000190151590811515815250508160026000858152602001908152602001600020600082015181600001556020820151816001019080519060200190610c969291906118f4565b50604082015181600201556060820151816003019080519060200190610cbd9291906118f4565b506080820151816004019080519060200190610cda9291906118f4565b5060a0820151816005019080519060200190610cf79291906118f4565b5060c0820151816006019080519060200190610d149291906118f4565b5060e08201518160070160006101000a81548173ffffffffffffffffffffffffffffffffffffffff021916908373ffffffffffffffffffffffffffffffffffffffff1602179055506101008201518160070160146101000a81548160ff0219169083151502179055509050508073ffffffffffffffffffffffffffffffffffffffff166108fc349081150290604051600060405180830381858888f19350505050158015610dc6573d6000803e3d6000fd5b507f31698e98b4f264e62de4453425a188a1e55d6482d2eeefec075ee032ead13cbb60015483602001518460400151856060015186608001518760a001518860c00151336001604051808a815260200180602001898152602001806020018060200180602001806020018873ffffffffffffffffffffffffffffffffffffffff1673ffffffffffffffffffffffffffffffffffffffff1681526020018715151515815260200186810386528e818151815260200191508051906020019080838360005b83811015610ea4578082015181840152602081019050610e89565b50505050905090810190601f168015610ed15780820380516001836020036101000a031916815260200191505b5086810385528c818151815260200191508051906020019080838360005b83811015610f0a578082015181840152602081019050610eef565b50505050905090810190601f168015610f375780820380516001836020036101000a031916815260200191505b5086810384528b818151815260200191508051906020019080838360005b83811015610f70578082015181840152602081019050610f55565b50505050905090810190601f168015610f9d5780820380516001836020036101000a031916815260200191505b5086810383528a818151815260200191508051906020019080838360005b83811015610fd6578082015181840152602081019050610fbb565b50505050905090810190601f1680156110035780820380516001836020036101000a031916815260200191505b50868103825289818151815260200191508051906020019080838360005b8381101561103c578082015181840152602081019050611021565b50505050905090810190601f1680156110695780820380516001836020036101000a031916815260200191505b509e50505050505050505050505050505060405180910390a1505050565b6002602052806000526040600020600091509050806000015490806001018054600181600116156101000203166002900480601f0160208091040260200160405190810160405280929190818152602001828054600181600116156101000203166002900480156111395780601f1061110e57610100808354040283529160200191611139565b820191906000526020600020905b81548152906001019060200180831161111c57829003601f168201915b505050505090806002015490806003018054600181600116156101000203166002900480601f0160208091040260200160405190810160405280929190818152602001828054600181600116156101000203166002900480156111dd5780601f106111b2576101008083540402835291602001916111dd565b820191906000526020600020905b8154815290600101906020018083116111c057829003601f168201915b505050505090806004018054600181600116156101000203166002900480601f01602080910402602001604051908101604052809291908181526020018280546001816001161561010002031660029004801561127b5780601f106112505761010080835404028352916020019161127b565b820191906000526020600020905b81548152906001019060200180831161125e57829003601f168201915b505050505090806005018054600181600116156101000203166002900480601f0160208091040260200160405190810160405280929190818152602001828054600181600116156101000203166002900480156113195780601f106112ee57610100808354040283529160200191611319565b820191906000526020600020905b8154815290600101906020018083116112fc57829003601f168201915b505050505090806006018054600181600116156101000203166002900480601f0160208091040260200160405190810160405280929190818152602001828054600181600116156101000203166002900480156113b75780601f1061138c576101008083540402835291602001916113b7565b820191906000526020600020905b81548152906001019060200180831161139a57829003601f168201915b5050505050908060070160009054906101000a900473ffffffffffffffffffffffffffffffffffffffff16908060070160149054906101000a900460ff16905089565b60015481565b600086511161140e57600080fd5b6000851161141b57600080fd5b600084511161142957600080fd5b600083511161143757600080fd5b600082511161144557600080fd5b600081511161145357600080fd5b60016000815480929190600101919050555060405180610120016040528060015481526020018781526020018681526020018581526020018481526020018381526020018281526020013373ffffffffffffffffffffffffffffffffffffffff168152602001600015158152506002600060015481526020019081526020016000206000820151816000015560208201518160010190805190602001906114fb9291906118f4565b506040820151816002015560608201518160030190805190602001906115229291906118f4565b50608082015181600401908051906020019061153f9291906118f4565b5060a082015181600501908051906020019061155c9291906118f4565b5060c08201518160060190805190602001906115799291906118f4565b5060e08201518160070160006101000a81548173ffffffffffffffffffffffffffffffffffffffff021916908373ffffffffffffffffffffffffffffffffffffffff1602179055506101008201518160070160146101000a81548160ff0219169083151502179055509050507f40024f4f335709e8315e9bdf8793f6ed5033c18b359f60bb4bf72c7f60093c19600154878787878787336000604051808a815260200180602001898152602001806020018060200180602001806020018873ffffffffffffffffffffffffffffffffffffffff1673ffffffffffffffffffffffffffffffffffffffff1681526020018715151515815260200186810386528e818151815260200191508051906020019080838360005b838110156116aa57808201518184015260208101905061168f565b50505050905090810190601f1680156116d75780820380516001836020036101000a031916815260200191505b5086810385528c818151815260200191508051906020019080838360005b838110156117105780820151818401526020810190506116f5565b50505050905090810190601f16801561173d5780820380516001836020036101000a031916815260200191505b5086810384528b818151815260200191508051906020019080838360005b8381101561177657808201518184015260208101905061175b565b50505050905090810190601f1680156117a35780820380516001836020036101000a031916815260200191505b5086810383528a818151815260200191508051906020019080838360005b838110156117dc5780820151818401526020810190506117c1565b50505050905090810190601f1680156118095780820380516001836020036101000a031916815260200191505b50868103825289818151815260200191508051906020019080838360005b83811015611842578082015181840152602081019050611827565b50505050905090810190601f16801561186f5780820380516001836020036101000a031916815260200191505b509e50505050505050505050505050505060405180910390a1505050505050565b60405180610120016040528060008152602001606081526020016000815260200160608152602001606081526020016060815260200160608152602001600073ffffffffffffffffffffffffffffffffffffffff1681526020016000151581525090565b828054600181600116156101000203166002900490600052602060002090601f016020900481019282601f1061193557805160ff1916838001178555611963565b82800160010185558215611963579182015b82811115611962578251825591602001919060010190611947565b5b5090506119709190611974565b5090565b61199691905b8082111561199257600081600090555060010161197a565b5090565b9056fea265627a7a723158209f5c1ba4c81a1ae69ccc48f22daee49783faa0a9cc0ebb68500d88db7350ecde64736f6c63430005100032",
  "source": "// pragma solidity ^0.5.16;\r\n\r\n// contract Marketplace {\r\n//     string public name;\r\n//     uint public productCount = 0;\r\n//     mapping(uint => Product) public products;\r\n\r\n//     //Product Structure\r\n//     struct Product {\r\n//         uint id;\r\n//         string name;\r\n//         uint price;\r\n//         string artist;\r\n//         string music;\r\n//         string music_photo;\r\n//         string artist_photo;\r\n//         string description;\r\n//         address payable owner;\r\n//         bool purchased;\r\n//     }\r\n\r\n//     event ProductCreated(\r\n//         uint id,\r\n//         string name,\r\n//         uint price,\r\n//         string artist,\r\n//         string music,\r\n//         string music_photo,\r\n//         string artist_photo,\r\n//         string description,\r\n//         address payable owner,\r\n//         bool purchased\r\n//     );\r\n\r\n//     event ProductPurchased(\r\n//         uint id,\r\n//         string name,\r\n//         uint price,\r\n//         string artist,\r\n//         string music,\r\n//         string music_photo,\r\n//         string artist_photo,\r\n//         string description,\r\n//         address payable owner,\r\n//         bool purchased\r\n//     );\r\n\r\n//     constructor() public {\r\n//         name = \"Web3 MarketPlace\";\r\n//     }\r\n\r\n//     function createProduct(string memory _name, uint _price, string memory _artist, string memory _music, string memory _music_photo, string memory _artist_photo, string memory _description) public {\r\n//         //Validate the product\r\n//         require(bytes(_name).length > 0); //validate name\r\n//         require(_price > 0); //validate price\r\n//         require(bytes(_artist).length > 0);\r\n//         require(bytes(_music).length > 0);\r\n//         require(bytes(_music_photo).length > 0);\r\n//         require(bytes(_artist_photo).length > 0);\r\n//         require(bytes(_description).length > 0);\r\n//         //increment product count\r\n//         productCount ++;\r\n//         //create product\r\n//         products[productCount] = Product(productCount, _name, _price, _artist, _music, _music_photo, _artist_photo, _description, msg.sender, false);\r\n//         // _artist, _music,\r\n//         //trigger an event to inform blockchain.\r\n//         emit ProductCreated(productCount, _name, _price, _artist, _music, _music_photo, _artist_photo, _description, msg.sender, false);\r\n//     }\r\n\r\n//     function purchaseProduct(uint _id) public payable {\r\n//         //Fetch Product\r\n//         Product memory _product = products[_id];\r\n//         //Fetch the owner\r\n//         address payable _seller = _product.owner;\r\n//         //Product is valid \r\n//         require(_product.id > 0 && _product.id <= productCount); //Validate ID\r\n//         require(msg.value >= _product.price); // Enough Ether in Transaction\r\n//         require(!_product.purchased);//Validate Purchasable\r\n//         require(_seller != msg.sender);//Buye and Seller are different\r\n//         //Purchase It - Transfer Ownership\r\n//         _product.owner = msg.sender;\r\n//         //Product Purchased\r\n//         _product.purchased = true;\r\n//         //Update the product\r\n//         products[_id] = _product;\r\n//         //Pay the seller by sending them Ether\r\n//         address(_seller).transfer(msg.value);\r\n//         //Trigger an event\r\n//          emit ProductPurchased(productCount, _product.name, _product.price,  _product.artist, _product.music, _product.music_photo, _product.artist_photo, _product.description, msg.sender, true);\r\n//         //  _product.artist, _product.music,\r\n//     }\r\n// }\r\n\r\n\r\n\r\npragma solidity ^0.5.16;\r\n\r\ncontract Marketplace {\r\n    string public name;\r\n    uint public productCount = 0;\r\n    mapping(uint => Product) public products;\r\n    //Product Structure\r\n    struct Product {\r\n        uint id;\r\n        string name;\r\n        uint price;\r\n        string artist;\r\n        string musicUrl_musicPhoto_artistPhoto;\r\n        string description;\r\n        string date;\r\n        address payable owner;\r\n        bool purchased;\r\n    }\r\n\r\n    event ProductCreated(\r\n        uint id,\r\n        string name,\r\n        uint price,\r\n        string artist,\r\n        string musicUrl_musicPhoto_artistPhoto,\r\n        string description,\r\n        string date,\r\n        address payable owner,\r\n        bool purchased\r\n    );\r\n\r\n    event ProductPurchased(\r\n        uint id,\r\n        string name,\r\n        uint price,\r\n        string artist,\r\n        string musicUrl_musicPhoto_artistPhoto,\r\n        string description,\r\n        string date,\r\n        address payable owner,\r\n        bool purchased\r\n    );\r\n\r\n    constructor() public {\r\n        name = \"Web3 MarketPlace\";\r\n    }\r\n\r\n    function createProduct(string memory _name, uint _price, string memory _artist, string memory _musicUrl_musicPhoto_artistPhoto, string memory _description, string memory _date) public {\r\n        //Validate the product\r\n        require(bytes(_name).length > 0); //validate name\r\n        require(_price > 0); //validate price\r\n        require(bytes(_artist).length > 0);\r\n        require(bytes(_musicUrl_musicPhoto_artistPhoto).length > 0);\r\n        require(bytes(_description).length > 0);\r\n        require(bytes(_date).length > 0);\r\n        //increment product count\r\n        productCount ++;\r\n        //create product\r\n        products[productCount] = Product(productCount, _name, _price, _artist, _musicUrl_musicPhoto_artistPhoto, _description, _date, msg.sender, false);\r\n        // _artist, _music,\r\n        //trigger an event to inform blockchain.\r\n        emit ProductCreated(productCount, _name, _price, _artist, _musicUrl_musicPhoto_artistPhoto, _description, _date, msg.sender, false);\r\n    }\r\n\r\n    function purchaseProduct(uint _id) public payable {\r\n        //Fetch Product\r\n        Product memory _product = products[_id];\r\n        //Fetch the owner\r\n        address payable _seller = _product.owner;\r\n        //Product is valid \r\n        require(_product.id > 0 && _product.id <= productCount); //Validate ID\r\n        require(msg.value >= _product.price); // Enough Ether in Transaction\r\n        require(!_product.purchased);//Validate Purchasable\r\n        require(_seller != msg.sender);//Buye and Seller are different\r\n        //Purchase It - Transfer Ownership\r\n        _product.owner = msg.sender;\r\n        //Product Purchased\r\n        _product.purchased = true;\r\n        //Update the product\r\n        products[_id] = _product;\r\n        //Pay the seller by sending them Ether\r\n        address(_seller).transfer(msg.value);\r\n        //Trigger an event\r\n         emit ProductPurchased(productCount, _product.name, _product.price,  _product.artist, _product.musicUrl_musicPhoto_artistPhoto, _product.description, _product.date, msg.sender, true);\r\n        //  _product.artist, _product.music,\r\n    }\r\n\r\n    // function accountData(address _owner) public {\r\n    //     Product[] memory _product = products._owner;\r\n\r\n    // }\r\n}\r\n\r\n\r\n\r\n\r\n\r\n\r\n\r\n\r\n\r\n\r\n\r\n\r\n\r\n\r\n\r\n\r\n// pragma solidity ^0.5.16;\r\n\r\n// contract Marketplace {\r\n//     string public name;\r\n//     uint public productCount = 0;\r\n//     mapping(uint => Product_primary) public products_pri;\r\n//     mapping(uint => Product_secondary) public products_sec;\r\n//     //Product Structure\r\n//     struct Product_primary {\r\n//         uint id;\r\n//         string name;\r\n//         uint price;\r\n//         string artist;\r\n//         address payable owner;\r\n//         bool purchased;\r\n//     }\r\n\r\n//     struct Product_secondary{\r\n//         uint id;\r\n//         string music;\r\n//         string music_photo;\r\n//         string artist_photo;\r\n//         string description;\r\n//     }\r\n\r\n//     event ProductPriCreated(\r\n//         uint id,\r\n//         string name,\r\n//         uint price,\r\n//         string artist,\r\n//         address payable owner,\r\n//         bool purchased\r\n//     );\r\n\r\n//     event ProductPriPurchased(\r\n//         uint id,\r\n//         string name,\r\n//         uint price,\r\n//         string artist,\r\n//         address payable owner,\r\n//         bool purchased\r\n//     );\r\n\r\n//     event ProductSecCreated(\r\n//         uint id,\r\n//         string music,\r\n//         string music_photo,\r\n//         string artist_photo,\r\n//         string description,\r\n//     );\r\n\r\n//     event ProductSecPurchased(\r\n//         uint id,\r\n//         string music,\r\n//         string music_photo,\r\n//         string artist_photo,\r\n//         string description,\r\n//     );\r\n\r\n//     constructor() public {\r\n//         name = \"Web3 MarketPlace\";\r\n//     }\r\n\r\n//     function createPriProduct(string memory _name, uint _price, string memory _artist) public {\r\n//         //Validate the product\r\n//         require(bytes(_name).length > 0); //validate name\r\n//         require(_price > 0); //validate price\r\n//         require(bytes(_artist).length > 0);\r\n//         //increment product count\r\n//         productCount ++;\r\n//         //create product\r\n//         products_pri[productCount] = Product_primary(productCount, _name, _price, _artist, msg.sender, false);\r\n//         // _artist, _music,\r\n//         //trigger an event to inform blockchain.\r\n//         emit ProductCreated(productCount, _name, _price, _artist, msg.sender, false);\r\n//     }\r\n\r\n//     function purchaseProduct(uint _id) public payable {\r\n//         //Fetch Product\r\n//         Product memory _product = products[_id];\r\n//         //Fetch the owner\r\n//         address payable _seller = _product.owner;\r\n//         //Product is valid \r\n//         require(_product.id > 0 && _product.id <= productCount); //Validate ID\r\n//         require(msg.value >= _product.price); // Enough Ether in Transaction\r\n//         require(!_product.purchased);//Validate Purchasable\r\n//         require(_seller != msg.sender);//Buye and Seller are different\r\n//         //Purchase It - Transfer Ownership\r\n//         _product.owner = msg.sender;\r\n//         //Product Purchased\r\n//         _product.purchased = true;\r\n//         //Update the product\r\n//         products[_id] = _product;\r\n//         //Pay the seller by sending them Ether\r\n//         address(_seller).transfer(msg.value);\r\n//         //Trigger an event\r\n//          emit ProductPurchased(productCount, _product.name, _product.price,  _product.artist, _product.music, _product.music_photo, _product.artist_photo, _product.description, msg.sender, true);\r\n//         //  _product.artist, _product.music,\r\n//     }\r\n// }",
  "sourcePath": "C:\\Users\\srira\\OneDrive\\Desktop\\internship-project\\web3-marketplace\\src\\contracts\\Marketplace.sol",
  "compiler": {
    "name": "solc",
    "version": "0.5.16+commit.9c3226ce.Emscripten.clang"
  },
  "schemaVersion": "3.4.10",
  "updatedAt": "2022-10-13T06:04:34.937Z",
  "networkType": "ethereum",
  "devdoc": {
    "methods": {}
  },
  "userdoc": {
    "methods": {}
  }
}